{
  "_format": "hh-sol-artifact-1",
  "contractName": "AaveV3FlashLoanArbMultiHop",
  "sourceName": "contracts/AaveV3FlashLoanArb_MultiHop.sol",
  "abi": [
    {
      "inputs": [
        {
          "internalType": "contract IPoolAddressesProvider",
          "name": "_addressProvider",
          "type": "address"
        },
        {
          "internalType": "address",
          "name": "_wethAddress",
          "type": "address"
        }
      ],
      "stateMutability": "nonpayable",
      "type": "constructor"
    },
    {
      "inputs": [
        {
          "internalType": "address",
          "name": "target",
          "type": "address"
        }
      ],
      "name": "AddressEmptyCode",
      "type": "error"
    },
    {
      "inputs": [
        {
          "internalType": "address",
          "name": "account",
          "type": "address"
        }
      ],
      "name": "AddressInsufficientBalance",
      "type": "error"
    },
    {
      "inputs": [],
      "name": "FailedInnerCall",
      "type": "error"
    },
    {
      "inputs": [
        {
          "internalType": "address",
          "name": "owner",
          "type": "address"
        }
      ],
      "name": "OwnableInvalidOwner",
      "type": "error"
    },
    {
      "inputs": [
        {
          "internalType": "address",
          "name": "account",
          "type": "address"
        }
      ],
      "name": "OwnableUnauthorizedAccount",
      "type": "error"
    },
    {
      "inputs": [
        {
          "internalType": "address",
          "name": "token",
          "type": "address"
        }
      ],
      "name": "SafeERC20FailedOperation",
      "type": "error"
    },
    {
      "anonymous": false,
      "inputs": [
        {
          "indexed": true,
          "internalType": "address",
          "name": "loanToken",
          "type": "address"
        },
        {
          "indexed": false,
          "internalType": "uint256",
          "name": "loanAmount",
          "type": "uint256"
        },
        {
          "indexed": false,
          "internalType": "uint256",
          "name": "profitAmount",
          "type": "uint256"
        },
        {
          "indexed": true,
          "internalType": "address",
          "name": "ownerInitiator",
          "type": "address"
        },
        {
          "indexed": false,
          "internalType": "bytes",
          "name": "params",
          "type": "bytes"
        }
      ],
      "name": "LogArbitrageMultiHop",
      "type": "event"
    },
    {
      "anonymous": false,
      "inputs": [
        {
          "indexed": true,
          "internalType": "address",
          "name": "collateralAsset",
          "type": "address"
        },
        {
          "indexed": true,
          "internalType": "address",
          "name": "debtAsset",
          "type": "address"
        },
        {
          "indexed": true,
          "internalType": "address",
          "name": "user",
          "type": "address"
        },
        {
          "indexed": false,
          "internalType": "uint256",
          "name": "debtRepaid",
          "type": "uint256"
        },
        {
          "indexed": false,
          "internalType": "uint256",
          "name": "liquidatedCollateral",
          "type": "uint256"
        },
        {
          "indexed": false,
          "internalType": "address",
          "name": "liquidator",
          "type": "address"
        },
        {
          "indexed": false,
          "internalType": "address",
          "name": "profitRecipient",
          "type": "address"
        }
      ],
      "name": "LogLiquidation",
      "type": "event"
    },
    {
      "anonymous": false,
      "inputs": [
        {
          "indexed": true,
          "internalType": "uint256",
          "name": "stepIndex",
          "type": "uint256"
        },
        {
          "indexed": false,
          "internalType": "address",
          "name": "target",
          "type": "address"
        },
        {
          "indexed": false,
          "internalType": "address",
          "name": "tokenIn",
          "type": "address"
        },
        {
          "indexed": false,
          "internalType": "address",
          "name": "tokenOut",
          "type": "address"
        },
        {
          "indexed": false,
          "internalType": "uint256",
          "name": "amountIn",
          "type": "uint256"
        },
        {
          "indexed": false,
          "internalType": "uint256",
          "name": "amountOut",
          "type": "uint256"
        },
        {
          "indexed": false,
          "internalType": "bool",
          "name": "isV3",
          "type": "bool"
        }
      ],
      "name": "LogSwapStepExecution",
      "type": "event"
    },
    {
      "anonymous": false,
      "inputs": [
        {
          "indexed": true,
          "internalType": "address",
          "name": "previousOwner",
          "type": "address"
        },
        {
          "indexed": true,
          "internalType": "address",
          "name": "newOwner",
          "type": "address"
        }
      ],
      "name": "OwnershipTransferred",
      "type": "event"
    },
    {
      "inputs": [],
      "name": "ADDRESSES_PROVIDER",
      "outputs": [
        {
          "internalType": "contract IPoolAddressesProvider",
          "name": "",
          "type": "address"
        }
      ],
      "stateMutability": "view",
      "type": "function"
    },
    {
      "inputs": [],
      "name": "POOL",
      "outputs": [
        {
          "internalType": "contract IPool",
          "name": "",
          "type": "address"
        }
      ],
      "stateMutability": "view",
      "type": "function"
    },
    {
      "inputs": [],
      "name": "WETH_ADDRESS",
      "outputs": [
        {
          "internalType": "address",
          "name": "",
          "type": "address"
        }
      ],
      "stateMutability": "view",
      "type": "function"
    },
    {
      "inputs": [
        {
          "internalType": "address",
          "name": "_debtToken",
          "type": "address"
        },
        {
          "internalType": "uint256",
          "name": "_debtAmount",
          "type": "uint256"
        },
        {
          "internalType": "address",
          "name": "_collateralAsset",
          "type": "address"
        },
        {
          "internalType": "address",
          "name": "_user",
          "type": "address"
        },
        {
          "internalType": "bool",
          "name": "_receiveAToken",
          "type": "bool"
        },
        {
          "internalType": "address",
          "name": "_profitRecipient",
          "type": "address"
        }
      ],
      "name": "executeAaveLiquidation",
      "outputs": [],
      "stateMutability": "payable",
      "type": "function"
    },
    {
      "inputs": [
        {
          "internalType": "address",
          "name": "asset",
          "type": "address"
        },
        {
          "internalType": "uint256",
          "name": "amount",
          "type": "uint256"
        },
        {
          "internalType": "uint256",
          "name": "premium",
          "type": "uint256"
        },
        {
          "internalType": "address",
          "name": "initiator",
          "type": "address"
        },
        {
          "internalType": "bytes",
          "name": "params",
          "type": "bytes"
        }
      ],
      "name": "executeOperation",
      "outputs": [
        {
          "internalType": "bool",
          "name": "",
          "type": "bool"
        }
      ],
      "stateMutability": "nonpayable",
      "type": "function"
    },
    {
      "inputs": [],
      "name": "owner",
      "outputs": [
        {
          "internalType": "address",
          "name": "",
          "type": "address"
        }
      ],
      "stateMutability": "view",
      "type": "function"
    },
    {
      "inputs": [],
      "name": "renounceOwnership",
      "outputs": [],
      "stateMutability": "nonpayable",
      "type": "function"
    },
    {
      "inputs": [
        {
          "internalType": "address",
          "name": "_loanToken",
          "type": "address"
        },
        {
          "internalType": "uint256",
          "name": "_loanAmount",
          "type": "uint256"
        },
        {
          "internalType": "bytes",
          "name": "_innerParams",
          "type": "bytes"
        }
      ],
      "name": "startArbitrageMultiHop",
      "outputs": [],
      "stateMutability": "payable",
      "type": "function"
    },
    {
      "inputs": [
        {
          "internalType": "address",
          "name": "newOwner",
          "type": "address"
        }
      ],
      "name": "transferOwnership",
      "outputs": [],
      "stateMutability": "nonpayable",
      "type": "function"
    },
    {
      "inputs": [],
      "name": "unwrapAndWithdrawWETH",
      "outputs": [],
      "stateMutability": "nonpayable",
      "type": "function"
    },
    {
      "inputs": [],
      "name": "withdrawETH",
      "outputs": [],
      "stateMutability": "nonpayable",
      "type": "function"
    },
    {
      "inputs": [
        {
          "internalType": "address",
          "name": "_tokenAddress",
          "type": "address"
        }
      ],
      "name": "withdrawToken",
      "outputs": [],
      "stateMutability": "nonpayable",
      "type": "function"
    },
    {
      "stateMutability": "payable",
      "type": "receive"
    }
  ],
  "bytecode": "0x60e06040523480156200001157600080fd5b5060405162002d3d38038062002d3d8339810160408190526200003491620001cd565b3382806001600160a01b03166080816001600160a01b031681525050806001600160a01b031663026b1d5f6040518163ffffffff1660e01b8152600401602060405180830381865afa1580156200008f573d6000803e3d6000fd5b505050506040513d601f19601f82011682018060405250810190620000b591906200020c565b6001600160a01b0390811660a05282169050620000ed57604051631e4fbdf760e01b8152600060048201526024015b60405180910390fd5b620000f88162000164565b506001600160a01b038116620001515760405162461bcd60e51b815260206004820152601460248201527f496e76616c6964205745544820616464726573730000000000000000000000006044820152606401620000e4565b6001600160a01b031660c0525062000233565b600080546001600160a01b038381166001600160a01b0319831681178455604051919092169283917f8be0079c531659141344cd1fd0a4f28419497f9722a3daafe3b4186f6b6457e09190a35050565b6001600160a01b0381168114620001ca57600080fd5b50565b60008060408385031215620001e157600080fd5b8251620001ee81620001b4565b60208401519092506200020181620001b4565b809150509250929050565b6000602082840312156200021f57600080fd5b81516200022c81620001b4565b9392505050565b60805160a05160c051612aa36200029a6000396000818160c901528181610282015261063d0152600081816101aa0152818161044a0152818161081c01528181610a9601528181610c8c01528181611548015261167a0152600061011a0152612aa36000f3fe6080604052600436106100ab5760003560e01c8063894760691161006457806389476069146101cc5780638da5cb5b146101ec57806394daeead1461020a578063e086e5ec1461021d578063eae380d014610232578063f2fde38b1461024557600080fd5b8063040141e5146100b75780630542975c146101085780630ec9be491461013c5780631b11d0ff14610153578063715018a6146101835780637535d2461461019857600080fd5b366100b257005b600080fd5b3480156100c357600080fd5b506100eb7f000000000000000000000000000000000000000000000000000000000000000081565b6040516001600160a01b0390911681526020015b60405180910390f35b34801561011457600080fd5b506100eb7f000000000000000000000000000000000000000000000000000000000000000081565b34801561014857600080fd5b50610151610265565b005b34801561015f57600080fd5b5061017361016e366004611f48565b61043d565b60405190151581526020016100ff565b34801561018f57600080fd5b5061015161060c565b3480156101a457600080fd5b506100eb7f000000000000000000000000000000000000000000000000000000000000000081565b3480156101d857600080fd5b506101516101e7366004611fc4565b610620565b3480156101f857600080fd5b506000546001600160a01b03166100eb565b610151610218366004611fe1565b61077d565b34801561022957600080fd5b50610151610893565b61015161024036600461204b565b610967565b34801561025157600080fd5b50610151610260366004611fc4565b610b10565b61026d610b4e565b6040516370a0823160e01b81523060048201527f0000000000000000000000000000000000000000000000000000000000000000906000906001600160a01b038316906370a0823190602401602060405180830381865afa1580156102d6573d6000803e3d6000fd5b505050506040513d601f19601f820116820180604052508101906102fa91906120c4565b90506000811161033b5760405162461bcd60e51b815260206004820152600760248201526609cde40ae8aa8960cb1b60448201526064015b60405180910390fd5b604051632e1a7d4d60e01b8152600481018290526001600160a01b03831690632e1a7d4d90602401600060405180830381600087803b15801561037d57600080fd5b505af1158015610391573d6000803e3d6000fd5b5050505060006103a96000546001600160a01b031690565b6001600160a01b03168260405160006040518083038185875af1925050503d80600081146103f3576040519150601f19603f3d011682016040523d82523d6000602084013e6103f8565b606091505b50509050806104385760405162461bcd60e51b815260206004820152600c60248201526b15d10815d155120811985a5b60a21b6044820152606401610332565b505050565b6000336001600160a01b037f000000000000000000000000000000000000000000000000000000000000000016146104ac5760405162461bcd60e51b815260206004820152601260248201527123261d1024b73b30b634b21031b0b63632b960711b6044820152606401610332565b6001600160a01b03841630146104fc5760405162461bcd60e51b815260206004820152601560248201527423261d1024b73b30b634b21034b734ba34b0ba37b960591b6044820152606401610332565b81806105425760405162461bcd60e51b8152602060048201526015602482015274496e76616c696420706172616d733a20656d70747960581b6044820152606401610332565b600060606000831161055357600080fd5b853560001a9150600183036001870160405180935082815282826020830137603f92909201601f1916919091016040525060ff82166105a2576105988a8a8a84610b7b565b9350505050610602565b60001960ff8316016105ba576105988a8a8a8461149c565b60405162461bcd60e51b815260206004820152601a60248201527f556e737570706f72746564206f7065726174696f6e20747970650000000000006044820152606401610332565b9695505050505050565b610614610b4e565b61061e60006118a8565b565b610628610b4e565b6001600160a01b0381161580159061067257507f00000000000000000000000000000000000000000000000000000000000000006001600160a01b0316816001600160a01b031614155b6106ad5760405162461bcd60e51b815260206004820152600c60248201526b092dcecc2d8d2c85eae8aa8960a31b6044820152606401610332565b6040516370a0823160e01b815230600482015281906000906001600160a01b038316906370a0823190602401602060405180830381865afa1580156106f6573d6000803e3d6000fd5b505050506040513d601f19601f8201168201806040525081019061071a91906120c4565b9050600081116107575760405162461bcd60e51b81526020600482015260086024820152672737902a37b5b2b760c11b6044820152606401610332565b61043861076c6000546001600160a01b031690565b6001600160a01b03841690836118f8565b610785610b4e565b6001600160a01b0384161580159061079d5750600083115b6107de5760405162461bcd60e51b81526020600482015260126024820152711054908e88125b9d985b1a59081a5b9c1d5d60721b6044820152606401610332565b60008083836040516020016107f5939291906120dd565b60408051601f19818403018152908290526310ac2ddf60e21b825291506001600160a01b037f000000000000000000000000000000000000000000000000000000000000000016906342b0b77c9061085a903090899089908790600090600401612155565b600060405180830381600087803b15801561087457600080fd5b505af1158015610888573d6000803e3d6000fd5b505050505050505050565b61089b610b4e565b47806108d25760405162461bcd60e51b815260206004820152600660248201526509cde408aa8960d31b6044820152606401610332565b600080546040516001600160a01b039091169083908381818185875af1925050503d806000811461091f576040519150601f19603f3d011682016040523d82523d6000602084013e610924565b606091505b50509050806109635760405162461bcd60e51b815260206004820152600b60248201526a15d1081155120811985a5b60aa1b6044820152606401610332565b5050565b61096f610b4e565b6001600160a01b0386161580159061098f57506001600160a01b03841615155b80156109a357506001600160a01b03831615155b80156109b757506001600160a01b03811615155b80156109c35750600085115b610a045760405162461bcd60e51b81526020600482015260126024820152711312544e88125b9d985b1a59081a5b9c1d5d60721b6044820152606401610332565b604080516001600160a01b0386811660208301528516818301528315156060808301919091528251808303909101815260808201909252600090600190610a51908490869060a00161219e565b60408051601f1981840301815290829052610a6f92916020016121c8565b60408051601f19818403018152908290526310ac2ddf60e21b825291506001600160a01b037f000000000000000000000000000000000000000000000000000000000000000016906342b0b77c90610ad49030908c908c908790600090600401612155565b600060405180830381600087803b158015610aee57600080fd5b505af1158015610b02573d6000803e3d6000fd5b505050505050505050505050565b610b18610b4e565b6001600160a01b038116610b4257604051631e4fbdf760e01b815260006004820152602401610332565b610b4b816118a8565b50565b6000546001600160a01b0316331461061e5760405163118cdaa760e01b8152336004820152602401610332565b600080600083806020019051810190610b949190612294565b915091506000815111610bd95760405162461bcd60e51b815260206004820152600d60248201526c4152423a204e6f20737465707360981b6044820152606401610332565b6040516370a0823160e01b81523060048201526000906001600160a01b038916906370a0823190602401602060405180830381865afa158015610c20573d6000803e3d6000fd5b505050506040513d601f19601f82011682018060405250810190610c4491906120c4565b905086811015610c895760405162461bcd60e51b815260206004820152601060248201526f4152423a2042616c616e6365206c6f7760801b6044820152606401610332565b877f000000000000000000000000000000000000000000000000000000000000000060005b84518110156112ec576000858281518110610ccb57610ccb6123b2565b60200260200101519050836001600160a01b031681602001516001600160a01b031614610d2f5760405162461bcd60e51b8152602060048201526012602482015271082a4847440a0c2e8d040dad2e6dac2e8c6d60731b6044820152606401610332565b80516001600160a01b0316610d795760405162461bcd60e51b815260206004820152601060248201526f1054908e8816995c9bc81d185c99d95d60821b6044820152606401610332565b846000819003610dbf5760405162461bcd60e51b81526020600482015260116024820152704152423a205a65726f2062616c616e636560781b6044820152606401610332565b815160405163095ea7b360e01b81526001600160a01b039182166004820152600060248201529086169063095ea7b3906044016020604051808303816000875af1158015610e11573d6000803e3d6000fd5b505050506040513d601f19601f82011682018060405250810190610e3591906123c8565b50815160405163095ea7b360e01b81526001600160a01b039182166004820152602481018390529086169063095ea7b3906044016020604051808303816000875af1158015610e88573d6000803e3d6000fd5b505050506040513d601f19601f82011682018060405250810190610eac91906123c8565b5060006060836080015115610f98575060408051610100810182526020858101516001600160a01b039081168084528785015182168385019081526060808a015162ffffff90811687890190815230928801928352426080890190815260a089018c8152600060c08b0181815260e0909b019081528b516024810198909852955188166044880152915190921660648601529151851660848501525160a48401525160c4830152935160e4820152925116610104808401919091528351808403909101815261012490920190925290810180516001600160e01b031663414bf38960e01b17905261107a565b604080516002808252606082018352600092602083019080368337019050509050846020015181600081518110610fd157610fd16123b2565b60200260200101906001600160a01b031690816001600160a01b031681525050846040015181600181518110611009576110096123b2565b6001600160a01b03909216602092830291909101909101526040516338ed173960e01b906110449086906000908590309042906024016123e5565b60408051601f198184030181529190526020810180516001600160e01b03166001600160e01b0319909316929092179091529150505b60008085600001516001600160a01b031660008460405161109b9190612459565b60006040518083038185875af1925050503d80600081146110d8576040519150601f19603f3d011682016040523d82523d6000602084013e6110dd565b606091505b5091509150816111345761113481876080015161111457604051806040016040528060028152602001612b1960f11b81525061194a565b60405180604001604052806002815260200161563360f01b81525061194a565b856080015115611159578080602001905181019061115291906120c4565b93506111ab565b60008180602001905181019061116f9190612475565b905060028151101561118057600080fd5b806001825161118f9190612527565b8151811061119f5761119f6123b2565b60200260200101519450505b600084116111ee5760405162461bcd60e51b815260206004820152601060248201526f1054908e8816995c9bc81bdd5d1c1d5d60821b6044820152606401610332565b85516020808801516040808a01516080808c015183516001600160a01b0397881681529487169585019590955294169082015260608101889052918201869052151560a082015287907faf777c143ddc7a4d79e15f2b95969dcfde3896f68e2dd053851d9cb39b591a389060c00160405180910390a260408087015190516370a0823160e01b81523060048201526001600160a01b03909116906370a0823190602401602060405180830381865afa1580156112ae573d6000803e3d6000fd5b505050506040513d601f19601f820116820180604052508101906112d291906120c4565b995085604001519850866001019650505050505050610cae565b50896001600160a01b0316826001600160a01b03161461134e5760405162461bcd60e51b815260206004820152601960248201527f4152423a2046696e616c20746f6b656e206d69736d61746368000000000000006044820152606401610332565b848310156113905760405162461bcd60e51b815260206004820152600f60248201526e20a9211d102637bb903932ba3ab93760891b6044820152606401610332565b600061139c898b61253a565b9050808410156113e25760405162461bcd60e51b81526020600482015260116024820152704152423a2043616e6e6f7420726570617960781b6044820152606401610332565b6113f66001600160a01b038c1683836118f8565b60006114028286612527565b905080156114305761143061141f6000546001600160a01b031690565b6001600160a01b038e1690836118f8565b6000546001600160a01b03166001600160a01b03168c6001600160a01b03167ffae2a169d2941094f953cd320333cc0d5dd64098d27c96853390abb04eafc2b68d848d6040516114829392919061254d565b60405180910390a35060019b9a5050505050505050505050565b6000806000838060200190518101906114b59190612575565b915091506000806000848060200190518101906114d29190612624565b919450925090506001600160a01b0384166115255760405162461bcd60e51b81526020600482015260136024820152721312544e8816995c9bc81c9958da5c1a595b9d606a1b6044820152606401610332565b6000611531898b61253a565b60405163095ea7b360e01b81526001600160a01b037f00000000000000000000000000000000000000000000000000000000000000008181166004840152600060248401529293508d169063095ea7b3906044016020604051808303816000875af11580156115a4573d6000803e3d6000fd5b505050506040513d601f19601f820116820180604052508101906115c891906123c8565b5060405163095ea7b360e01b81526001600160a01b038281166004830152602482018490528d169063095ea7b3906044016020604051808303816000875af1158015611618573d6000803e3d6000fd5b505050506040513d601f19601f8201168201806040525081019061163c91906123c8565b5060405162a718a960e01b81526001600160a01b0386811660048301528d811660248301528581166044830152606482018d905284151560848301527f0000000000000000000000000000000000000000000000000000000000000000169062a718a99060a401600060405180830381600087803b1580156116bd57600080fd5b505af19250505080156116ce575060015b611771576116da612671565b806308c379a00361173057506116ee61268d565b806116f95750611732565b8060405160200161170a9190612717565b60408051601f198184030181529082905262461bcd60e51b82526103329160040161274b565b505b60405162461bcd60e51b81526020600482015260146024820152734c4951204661696c65642028556e6b6e6f776e2960601b6044820152606401610332565b6040516370a0823160e01b81523060048201526000906001600160a01b038716906370a0823190602401602060405180830381865afa1580156117b8573d6000803e3d6000fd5b505050506040513d601f19601f820116820180604052508101906117dc91906120c4565b9050600081116118235760405162461bcd60e51b81526020600482015260126024820152711312544e88139bc818dbdb1b185d195c985b60721b6044820152606401610332565b6118376001600160a01b03871688836118f8565b604080518d81526020810183905230918101919091526001600160a01b038881166060830152808716918f8216918916907f768e2f88b0e0539b402575e3f2bcde71e89a51960957b355f34f40f0869691139060800160405180910390a45060019c9b505050505050505050505050565b600080546001600160a01b038381166001600160a01b0319831681178455604051919092169283917f8be0079c531659141344cd1fd0a4f28419497f9722a3daafe3b4186f6b6457e09190a35050565b604080516001600160a01b038416602482015260448082018490528251808303909101815260649091019091526020810180516001600160e01b031663a9059cbb60e01b179052610438908490611b00565b6004825110611aef57602082015160e01c6307b9e43360e51b6001600160e01b03198216016119eb5760448351101561198e578160405160200161170a919061275e565b60606000602490508085015180828701015161040081116119ae57600080fd5b604051809450818152602083858a0101019250602081018284823750603f91909101601f191601604081905261170a915085908490602001612795565b63b1b7848f60e01b6001600160e01b0319821601611a4057602483511015611a1e578160405160200161170a91906127d9565b6024838101519083611a2f83611b63565b60405160200161170a929190612810565b8251600403611ade57620eafe360ec1b6001600160e01b0319821601611a71578160405160200161170a9190612853565b630bade18b60e11b6001600160e01b0319821601611a9a578160405160200161170a919061287d565b637f571c1160e11b6001600160e01b0319821601611ac3578160405160200161170a91906128ad565b81611acd82611c6f565b60405160200161170a9291906128e0565b8160405160200161170a9190612938565b8060405160200161170a9190612971565b6000611b156001600160a01b03841683611d7e565b90508051600014158015611b3a575080806020019051810190611b3891906123c8565b155b1561043857604051635274afe760e01b81526001600160a01b0384166004820152602401610332565b606081600003611b8a5750506040805180820190915260018152600360fc1b602082015290565b8160005b8115611bb45780611b9e816129a5565b9150611bad9050600a836129d4565b9150611b8e565b60008167ffffffffffffffff811115611bcf57611bcf6121f7565b6040519080825280601f01601f191660200182016040528015611bf9576020820181803683370190505b509050815b8515611c665780611c0e816129e8565b9150611c1d9050600a876129ff565b611c2890603061253a565b60f81b828281518110611c3d57611c3d6123b2565b60200101906001600160f81b031916908160001a905350611c5f600a876129d4565b9550611bfe565b50949350505050565b6040805160088082528183019092526060916000919060208201818036833701905050905060005b6004811015611d55576000848260048110611cb457611cb46123b2565b1a9050611cc4600482901c611d95565b83611cd0846002612a13565b81518110611ce057611ce06123b2565b60200101906001600160f81b031916908160001a905350611d0381600f16611d95565b83611d0f846002612a13565b611d1a90600161253a565b81518110611d2a57611d2a6123b2565b60200101906001600160f81b031916908160001a905350508080611d4d906129a5565b915050611c97565b5080604051602001611d679190612a2a565b604051602081830303815290604052915050919050565b6060611d8c83836000611dc6565b90505b92915050565b6000600a8260ff1610611db257611dad826057612a54565b611dbd565b611dbd826030612a54565b60f81b92915050565b606081471015611deb5760405163cd78605960e01b8152306004820152602401610332565b600080856001600160a01b03168486604051611e079190612459565b60006040518083038185875af1925050503d8060008114611e44576040519150601f19603f3d011682016040523d82523d6000602084013e611e49565b606091505b5091509150611e59868383611e65565b925050505b9392505050565b606082611e7a57611e7582611ec1565b611e5e565b8151158015611e9157506001600160a01b0384163b155b15611eba57604051639996b31560e01b81526001600160a01b0385166004820152602401610332565b5080611e5e565b805115611ed15780518082602001fd5b604051630a12f52160e11b815260040160405180910390fd5b6001600160a01b0381168114610b4b57600080fd5b60008083601f840112611f1157600080fd5b50813567ffffffffffffffff811115611f2957600080fd5b602083019150836020828501011115611f4157600080fd5b9250929050565b60008060008060008060a08789031215611f6157600080fd5b8635611f6c81611eea565b955060208701359450604087013593506060870135611f8a81611eea565b9250608087013567ffffffffffffffff811115611fa657600080fd5b611fb289828a01611eff565b979a9699509497509295939492505050565b600060208284031215611fd657600080fd5b8135611e5e81611eea565b60008060008060608587031215611ff757600080fd5b843561200281611eea565b935060208501359250604085013567ffffffffffffffff81111561202557600080fd5b61203187828801611eff565b95989497509550505050565b8015158114610b4b57600080fd5b60008060008060008060c0878903121561206457600080fd5b863561206f81611eea565b955060208701359450604087013561208681611eea565b9350606087013561209681611eea565b925060808701356120a68161203d565b915060a08701356120b681611eea565b809150509295509295509295565b6000602082840312156120d657600080fd5b5051919050565b60f884901b6001600160f81b0319168152818360018301376000910160010190815292915050565b60005b83811015612120578181015183820152602001612108565b50506000910152565b60008151808452612141816020860160208601612105565b601f01601f19169290920160200192915050565b6001600160a01b038681168252851660208201526040810184905260a06060820181905260009061218890830185612129565b905061ffff831660808301529695505050505050565b6040815260006121b16040830185612129565b905060018060a01b03831660208301529392505050565b60ff60f81b8360f81b168152600082516121e9816001850160208701612105565b919091016001019392505050565b634e487b7160e01b600052604160045260246000fd5b60a0810181811067ffffffffffffffff8211171561222d5761222d6121f7565b60405250565b601f8201601f1916810167ffffffffffffffff81118282101715612259576122596121f7565b6040525050565b600067ffffffffffffffff82111561227a5761227a6121f7565b5060051b60200190565b805161228f8161203d565b919050565b60008060408084860312156122a857600080fd5b8351925060208085015167ffffffffffffffff8111156122c757600080fd5b8501601f810187136122d857600080fd5b80516122e381612260565b84516122ef8282612233565b82815260a0928302840185019285820192508a84111561230e57600080fd5b938501935b838510156123a15780858c03121561232b5760008081fd5b86516123368161220d565b855161234181611eea565b81528587015161235081611eea565b818801528588015161236181611eea565b8189015260608681015162ffffff8116811461237d5760008081fd5b90820152608061238e878201612284565b9082015283529384019391850191612313565b508096505050505050509250929050565b634e487b7160e01b600052603260045260246000fd5b6000602082840312156123da57600080fd5b8151611e5e8161203d565b600060a08201878352602060ff88168185015260a0604085015281875180845260c086019150828901935060005b818110156124385784516001600160a01b031683529383019391830191600101612413565b50506001600160a01b03969096166060850152505050608001529392505050565b6000825161246b818460208701612105565b9190910192915050565b6000602080838503121561248857600080fd5b825167ffffffffffffffff81111561249f57600080fd5b8301601f810185136124b057600080fd5b80516124bb81612260565b6040516124c88282612233565b82815260059290921b83018401918481019150878311156124e857600080fd5b928401925b82841015612506578351825292840192908401906124ed565b979650505050505050565b634e487b7160e01b600052601160045260246000fd5b81810381811115611d8f57611d8f612511565b80820180821115611d8f57611d8f612511565b83815282602082015260606040820152600061256c6060830184612129565b95945050505050565b6000806040838503121561258857600080fd5b825167ffffffffffffffff808211156125a057600080fd5b818501915085601f8301126125b457600080fd5b8151818111156125c6576125c66121f7565b60405191506125df601f8201601f191660200183612233565b8082528660208285010111156125f457600080fd5b612605816020840160208601612105565b508093505050602083015161261981611eea565b809150509250929050565b60008060006060848603121561263957600080fd5b835161264481611eea565b602085015190935061265581611eea565b60408501519092506126668161203d565b809150509250925092565b600060033d111561268a5760046000803e5060005160e01c5b90565b600060443d101561269b5790565b6040516003193d81016004833e81513d67ffffffffffffffff81602484011181841117156126cb57505050505090565b82850191508151818111156126e35750505050505090565b843d87010160208285010111156126fd5750505050505090565b61270c60208286010187612233565b509095945050505050565b6b02624a8902330b4b632b21d160a51b81526000825161273e81600c850160208701612105565b91909101600c0192915050565b602081526000611d8c6020830184612129565b60008251612770818460208701612105565b721d102932bb32b93a1029b437b93a22b93937b960691b920191825250601301919050565b600083516127a7818460208801612105565b680102932bb32b93a1d160bd1b90830190815283516127cd816009840160208801612105565b01600901949350505050565b600082516127eb818460208701612105565b723a205265766572742053686f727450616e696360681b920191825250601301919050565b60008351612822818460208801612105565b670102830b734b19d160c51b9083019081528351612847816008840160208801612105565b01600801949350505050565b60008251612865818460208701612105565b653a2056323a4b60d01b920191825250600601919050565b6000825161288f818460208701612105565b6b0e88158c88115e1c1a5c995960a21b920191825250600c01919050565b600082516128bf818460208701612105565b6e0e88158c88125b9cdd59998813dd5d608a1b920191825250600f01919050565b600083516128f2818460208801612105565b6e07440a4caeccae4e8cac840a6cad85608b1b908301908152835161291e81600f840160208801612105565b602960f81b600f9290910191820152601001949350505050565b6000825161294a818460208701612105565b7420526576657274656420556e6b6e6f776e4461746160581b920191825250601501919050565b60008251612983818460208701612105565b6f205265766572746564204e6f4461746160801b920191825250601001919050565b6000600182016129b7576129b7612511565b5060010190565b634e487b7160e01b600052601260045260246000fd5b6000826129e3576129e36129be565b500490565b6000816129f7576129f7612511565b506000190190565b600082612a0e57612a0e6129be565b500690565b8082028115828204841417611d8f57611d8f612511565b61060f60f31b815260008251612a47816002850160208701612105565b9190910160020192915050565b60ff8181168382160190811115611d8f57611d8f61251156fea2646970667358221220db84514375c3a5903c8419374f564b65bb6e6779a68441dc86b80fad33a89d4964736f6c63430008140033",
  "linkReferences": {},
  "deployedLinkReferences": {}
}